:020000041004E6
:1000000088360020C501041025D60410EF96041090
:1000100000000000000000000000000000000000E0
:1000200000000000000000000000000055DD04108A
:1000300000000000000000007DDA041057DD04100D
:10004000D7010410D7010410D7010410D701041000
:10005000000000000000000000000000D7010410B4
:10006000EDDF0410D7010410D7010410D7010410EC
:10007000D7010410D701041000000000D7010410BC
:10008000D7010410AD3D041029DB0410000000006E
:1000900021DB0410000000000000000019DB041048
:1000A000D701041031DB0410D7010410D70104106C
:1000B000D701041000000000000000000000000054
:1000C00000F002F800F053F812A030C808382418E5
:1000D0002D18AC4201D100F04AF80FCCA246AB4635
:1000E0000CA730CF2D1B083F3F197C427F1E544484
:1000F0002D090426F441641EAC4201D300F037F808
:100100000126334200D0FB1A3343984754465D46DC
:10011000DFE70000787C0100A87C01007047000048
:100120000023002400250026103A01D378C1FBD813
:10013000520700D330C100D50B60704710B5642959
:1001400002D100F065F910BD782902D100F0C2F9A2
:1001500010BD002010BD1FB50098019901F011FCE1
:1001600001F0DCF81FBD10B501F044F910BD01F03D
:10017000F6F91146FFF7EFFF13F002FB01F0AEFBBB
:1001800003B4FFF7F0FF03BC01F01AFD70B505469C
:100190000C46164602E00FCC0FC5103E102EFAD2C8
:1001A000082E02D303CC03C5083E042E07D301CC8E
:1001B00001C5361F03E021782970641C6D1C761E72
:1001C000F9D270BD0748804707480047FEE7FEE7C1
:1001D000FEE7FEE7FEE7FEE704480549034A054B54
:1001E00070470000D1DD0410C1000410882A0020EF
:1001F00088360020882A0020EFF31482EFF309816B
:10020000154880F31488BFF36F8FF0B543464C4612
:1002100055465E466746F8B4104CEFF308836360BA
:1002200006B4BFF34F8F30BF00BF00BF0B4C6468F4
:1002300084F3088882B003BCF8BC9846A146AA465D
:10024000B346BC46F0BC04BC80F3098881F3148833
:10025000BFF36F8F10470000000000000400002073
:1002600010B5904216D98AB2030C090C0C465943BA
:1002700080B25343444350431B191A041B0C1018FB
:10028000594180225203002312184B41520DD802CB
:10029000104310BD4843802252031218520D1046DD
:1002A00010BD00008B0707D0521E22D30B78491CCB
:1002B0000370401C8B07F7D1830730D0DB4219D085
:1002C000401E121F08D308C943701B0A43801B0C31
:1002D0000371001D121FF6D2D20707D30B8843709B
:1002E00001D08A78C2701B0A8370704701D00B78E6
:1002F00043707047121F06D308C903801B0C43804C
:10030000001D121FF8D2D20705D30B88038005D039
:100310008B788370704701D00B780370704770B48E
:10032000103A03D378C978C0103AFBD2530701D3EF
:1003300018C918C001D508C908C0D20704D30B8852
:100340000380801C891C002A01D50B78037070BCC7
:100350007047000010B5202A04DB0146203A914086
:10036000002010BD914020239C1A0346E34019430E
:10037000904010BD4343514330B55C18010C130C41
:100380000D4692B25D4380B251432C190546554348
:100390000A0C09044D1962415843010C000440192C
:1003A000514130BD0FB4054910B503AA029800F0C1
:1003B0008FFE10BC08BC04B0184700002C030020BE
:1003C00070B5044685690068C10601D5302600E095
:1003D0002026C00707D070BD62683046A1689047EC
:1003E000206A401C20626D1EF6D570BD70B50446B3
:1003F00085690078C00707D170BD6268A1682020B8
:100400009047206A401C20626D1EF6D570BD00002A
:10041000F7B5002575291068009914A611D0C046BB
:10042000C046002802DA404211A608E00099096897
:100430008A0701D50FA602E0490704D50EA60125BB
:1004400001E0C046C046009F0024243704E000F0CD
:1004500053FE30313955641C0028F8D12B46324602
:100460002146009800F0C4FDFEBD00000000000021
:100470002D0000002B00000020000000F8B50F4602
:100480000188090502D5224C7C4402E0204C7C44C2
:100490000E3405460021243508E016071209360FF0
:1004A000A65D6E541E0732431B09491C16461E43A7
:1004B000F3D1224604780023240705D5702F06D0F7
:1004C000002901D00223113200F092FDF8BD012372
:1004D0001032F9E770B504460D4621461068C04653
:1004E000C0460023024629462046FFF7C7FF70BDDD
:1004F000D21DD308DB000CCBC0E730B40368202446
:100500001268234303600823C36130BC0023B5E7AE
:10051000CC6A0100F3B50446002081B02062204679
:10052000E1688847002872D0252802D06268A16857
:10053000ABE0594F00267F442046E16888472028D9
:10054000054608DB312D06D27819203800780028BE
:1005500001D00643F0E7B00701D504208643002010
:10056000E0610746A0612A2D0AD0284616F0ABFCB0
:10057000002827D0B8000019303D0090856119E0AF
:100580000298BA00121902C8916102902046E168EF
:100590008847012F054617D1E06900281FDA20207F
:1005A00086431CE000980A2180694843009940195D
:1005B000303888612046E1688847054616F083FC9C
:1005C0000028EFD1012F0AD02E2D08D12046E16856
:1005D00088470546202006437F1C022FC3DBA06905
:1005E000002803DA4042A06101200643F00701D051
:1005F000102086436C2D0BD0682D09D04C2D3CD09B
:100600006A2D38D0742D38D07A2D36D016E040E0DF
:10061000E1682F4620468847B842054609D16C2F2D
:1006200029D001208002E16806432046884705461C
:1006300004E06C2F1DD0FF2001300643002D28D090
:1006400028464138192803D80120C0020643203526
:10065000204626602946029A1646FFF76FFD0028BD
:1006600010D001280BD0F61DF008C0000830029011
:1006700055E74020E1E78020D5E70020D3E7361D8D
:1006800002964CE762682846A1689047206A401CA1
:1006900044E7206AFEBD0000466A010010B5024929
:1006A00016F018FC10BD00002C03002010B5044605
:1006B00003E016F00FFC401C08D020780549641CAC
:1006C0000028F6D10A2016F005FC10BD0020C0431A
:1006D00010BD00002C030020034610B50B439B0700
:1006E0000FD1042A0DD308C810C9121FA342F8D095
:1006F00018BA21BA884201D9012010BD0020C04398
:1007000010BD002A03D0D30703D0521C07E00020FD
:1007100010BD03780C78401C491C1B1B07D10378C3
:100720000C78401C491C1B1B01D1921EF1D11846AC
:1007300010BDF8B5042A2CD3830712D00B78491CBE
:100740000370401C521E83070BD00B78491C0370AA
:10075000401C521E830704D00B78491C0370401CB8
:10076000521E8B079B0F05D0C91ADF002023DE1B0A
:1007700008C90AE0FFF70AFDF8BD1D4608C9FD409B
:100780001C46B4402C4310C0121F042AF5D2F308B3
:10079000C91A521EF0D40B78491C0370401C521E1B
:1007A000EAD40B78491C0370401C012AE4D4097870
:1007B0000170F8BDD2B210B513029A1813049A183A
:1007C00000F017F810BDD2B210B513029A18130436
:1007D0009A1800F001F810BD01E004C0091F0429B7
:1007E000FBD28B0701D50280801CC90700D00270A4
:1007F000704700290BD0C30702D00270401C491E6D
:10080000022904D3830702D50280801C891EE3E7F6
:100810000022EEE70022DFE7002203098B422CD3FF
:10082000030A8B4211D300239C464EE003460B4340
:100830003CD4002243088B4231D303098B421CD3A2
:10084000030A8B4201D394463FE0C3098B4201D394
:10085000CB01C01A524183098B4201D38B01C01ACC
:10086000524143098B4201D34B01C01A5241030943
:100870008B4201D30B01C01A5241C3088B4201D3F2
:10088000CB00C01A524183088B4201D38B00C01A9F
:10089000524143088B4201D34B00C01A5241411AC6
:1008A00000D201465241104670475DE0CA0F00D0A9
:1008B0004942031000D3404253409C4600220309A2
:1008C0008B422DD3030A8B4212D38901FC2212BA28
:1008D000030A8B420CD3890192118B4208D3890100
:1008E00092118B4204D389013AD0921100E0890918
:1008F000C3098B4201D3CB01C01A524183098B42F9
:1009000001D38B01C01A524143098B4201D34B01E1
:10091000C01A524103098B4201D30B01C01A524144
:10092000C3088B4201D3CB00C01A524183088B42CB
:1009300001D38B00C01A5241D9D243088B4201D354
:100940004B00C01A5241411A00D201465241104692
:1009500063465B1001D34042002B00D549427047EB
:1009600063465B1000D3404201B50549002802DC14
:10097000491C084000E00846C046C04602BD00BF12
:10098000FFFFFF7F7047704770470000F0B50C46CF
:10099000871A9C410D46861A9D4103D2C01BA14176
:1009A000D21963410D0D1F0DC94EEC1BAE435CD037
:1009B0007F057F0D0026002F51D02D05AC46A943A1
:1009C000DD020123ED0A1B051D4320231B1B24D43C
:1009D0001746E740381871412F46E740CC199D4033
:1009E0002818314661410C0D27D161449A4013D536
:1009F0000023401C594152000ED140084000012202
:100A00004B005205D34207D305204007C14201D510
:100A1000B04900E0B0493046F0BD6B00002A00D07C
:100A200001229A181F23203C1B1B01D5002302E042
:100A3000E540281871410C0DD7D00124240509196F
:100A4000C407CD0740084908E40F28436144002C3F
:100A5000D5D00024401C61419A40D0D1CDE76A0531
:100A6000520DD9D1C90FC907D5E79C4D4E000028BA
:100A700001D0012400E0002434195F00002A01D0D5
:100A8000012600E00026BE19954FAC420CD8AE42BC
:100A90000AD8B44206D001256D05EC42BCD0104600
:100AA0001946F0BD9942FCD000203946F0BDF0B5A2
:100AB0001FB40C460F46811A9F412546861A9D4158
:100AC00006D20125ED076F40401ABC4152187B4108
:100AD000210D1E0D8D1BAC467D4D8D437ED07505C1
:100AE0006D0D7CD00D05AE46AC431B031B0B794D41
:100AF00052429D41202366469B1B14D31746F74064
:100B0000381800260090744160462F460741E419CA
:100B100000989D402818664116D4714671189A4075
:100B200025D5012320E093182A466A415200002B64
:100B300000D0521C1E23203E9B1B002B61DD354143
:100B4000EE1728186641E8D5001876415B1C9A40DC
:100B500000D3401C4B05F3181524E34010D3002BA1
:100B600052D071467118D30FC01802D3491C05B07A
:100B7000F0BD0123DB079A42F9D140084000F6E7B7
:100B800001225205B21801D1002853D00123CC0A0A
:100B9000DB029943891E002A08D1020C03D0020C03
:100BA0000004103902E00246002020390023550BD2
:100BB00005D112020823550B01D152010D23550C0A
:100BC00001D112011B1DD50C01D192009B1C150DEA
:100BD00001D152005B1C2025EE1A01E02CE022E03E
:100BE0000546F54015439840CA1AE10769181305F0
:100BF000C918002ABBDA032040070818C10FC9072B
:100C00000FE071466118B2E7F10740080843711020
:100C100071444A000CD001235B059A42A7D2C90F48
:100C2000C9070020A3E74905490D26D1002001E0AE
:100C30000028F4D100219AE7284D6600002801D051
:100C4000012100E0002171185F00002A01D0012677
:100C500000E00026BE19224FA94210D8AE420ED89D
:100C6000B14208D001256D05E94206D01946A80217
:100C7000414010467BE79C4201D0214677E70020A7
:100C8000394674E710B50C465C4005D50124E407ED
:100C90006340FFF70CFF10BDFFF778FE10BD30B4C6
:100CA0000C465C4004D50124E407634030BC6DE68B
:100CB00030BCFCE670B50124E40761400D465D40A0
:100CC00002D4FFF763FE70BD6340FFF7F0FE70BD16
:100CD000FF0700000000F0FF0000F07F0000E0FFD1
:100CE0000000F87F30B50346CA02400D1043164D90
:100CF000164C0A1502D02043002A06DBAA1A002A45
:100D000012DDD040FF2A0BDC30BD5205520D01D15F
:100D100040004008AA1A07D4D0404042FF2A01DD13
:100D2000002030BD0028FCDD4A00002B01D001204E
:100D300000E00020101801225205D042F0D8C81758
:100D4000C043604030BD00001E0400000000008071
:100D50001F22030C02D10F22000402D0030E03D085
:100D600004E00020014670470002083A030F01D159
:100D70000001121F830F01D18000921E002801DBA9
:100D80004000521E120551184205C012411810466B
:100D90007047C10FC90700D040420122920711439A
:100DA000D6E701218907D3E7F0B58B4C0F0925461B
:100DB00089B0BD437BD01D092646AE43FAD00E460E
:100DC0005E402740F60F3E43254071D0240121426A
:100DD000FBD0FF24AD19A4042D1B039501252D057F
:100DE000DB02DB0AC9022B43C90A29431E010901A0
:100DF000040F130F050121431701880B8203914350
:100E00002D098C46A90B1E438A039543B30B9A0305
:100E100096433F09BA0B9403A74302962E467E439E
:100E20000497B6464E19D7190C46019654430597B8
:100E30007E43371B7646BF1B3601B646BE0B3619BE
:100E400000967646BC043719009C01D3641C0094BC
:100E50006400002F01D001263443029E049F754395
:100E600066467E430496760034196E003419009469
:100E7000029C019E1C196643751BAE46069465468E
:100E80004519059C05956C43594375460891691AA7
:100E90000191049E01465143A41B0491611A009CD8
:100EA0000791E10605D061090122114302E072E0D9
:100EB0006EE06109089D00272C0A2D066918049D23
:100EC0007C412A0A2D066918019D6241AC0DAD02D4
:100ED0006D185441079A910D920255196141029A79
:100EE000644658435443069B059A5A43121A131BEF
:100EF0009A0E9B015B187A41010B0005C318514102
:100F0000220A200644195A419A4200D2491C012063
:100F10004002814203D315230226F64302E0142344
:100F20000326F6432020C51AA9401746AF40DA40F1
:100F30000A4320460399D84009147318190551181B
:100F4000039A3843D2075140AC4009D00122944063
:100F500006D30022401C5141002C01D14008400022
:100F60001E4A934212D3012203989206904207DB55
:100F70000520400709181A480143C012414004E007
:100F8000032040070818C10FC907002009B0F0BDB1
:100F90000020F107FAE705180C464C4111486D4254
:100FA000A04115D394181A465A410E486442904104
:100FB0000ED301204A004005824209D35A008242E2
:100FC00006D35940C90F084AC90700201143DDE77D
:100FD00000200649DAE700000000FF07FE070000D6
:100FE000FFFFFF7F0000E0FF0000F07F0000F87FC0
:100FF000FFB504460D4681B0243000902168880674
:1010000004D51022E0699143216000E00120A8424C
:1010100001DD471B00E000270498A1697A19101828
:10102000081AA0612078C00602D42046FFF7C8F94C
:10103000002608E003986268A168805D9047206AF6
:10104000401C761C206204988642F3DB2078C006A0
:101050000AD52046FFF7B4F906E06268A16830209F
:101060009047206A401C206238467F1E0028F4DC2E
:1010700007E000986268A168405D9047206A401CC4
:10108000206228466D1E0028F3DC2046FFF7AEF9EB
:101090002078000602D5022005B0F0BD0120FBE754
:1010A00001694A1C02610878704700B58FB002914F
:1010B000002105910549019379440391114604905B
:1010C0006846FFF727FA0FB000BD0000E5FFFFFFFD
:1010D000084B70B50D467B44FFF7E7FF04462846F2
:1010E00000F01EF8002802D00020C04370BD20464A
:1010F00070BD0000FB5D010001468008081A02096E
:101100001018020A1018020C1018C00882001218D9
:101110005200891A01E0401C0A390A29FBD27047A3
:10112000C068802108407047F7B505460C46C8687E
:101130000521C9048843012189050843E060800630
:1011400002D5204600F009FB7249E06801400229FF
:1011500003D0204600F0A0FABEE005210122490399
:101160000140D20391420FD1C00306D56168E06A05
:10117000884200D80846606006E02069E06260604E
:10118000606900F0E6F9A061A1680022EEB20029D2
:101190000EDAE06883050BD4C943A16009212260FF
:1011A00049030843E0606068411C61600670AEE07E
:1011B000E068012149030843E060002020602069C5
:1011C000002831D1606900F0B6F90125274624379F
:1011D000ED02002816D0A0898005800F08D0E069B4
:1011E00000F0DCF90028206102D0E068284318E014
:1011F00001202761E061E0680321090288430121A1
:1012000089020DE0E06900F0C9F900282061EFD003
:10121000E0682843E0608105890F03D1FF21013197
:101220000843E06020696060E2683B4F2569D005B3
:1012300020D56168E06A884200D80846411B05D085
:101240002246284600F032FA002845D102980028AC
:1012500004D0E56200206560A06055E0681CE06293
:101260006060E069401EA060E0683843E06030469E
:101270002E70FEBD0298002801D03A4009E0606857
:10128000411C61600670E06838430A2EE06006D0B9
:101290000022E16A6068814203D90B4602E0012224
:1012A000F7E70346A7895B1B7F0504D4E7699F42E4
:1012B00001DD002A1ED0814200D801460F1A00200D
:1012C000E5626560002BA06009DD224619462846CC
:1012D00000F0ECF9002802D00020C043FEBD002F32
:1012E00008D0A069E5626560C01BA061E0681021BC
:1012F0000843E0600298002809D06168A069E562AF
:10130000491B40186560A0610120C043FEBD304606
:10131000FEBD0000821000000000010010B543482F
:101320005421FFF777FA42485421FFF773FA4148F6
:101330005421FFF76FFA40483C493D4B404A016059
:101340003E4803603B4810605A1C0A65411C196501
:10135000012101653C48354A3AA1784400F022FA5F
:10136000002804D1384878440C3800F0BFFA3848D7
:101370002F4A36A1784400F015FA002804D13448E9
:1013800078440C3800F0B2FA32482A4A2FA1784447
:1013900000F008FA002804D12E4878440C3800F0F8
:1013A000A5FA40232148DC000021224600F04EF936
:1013B000002804D0244878445C3800F097FA1C4890
:1013C00022464023002100F041F9002804D02048A3
:1013D00078445C3800F08AFA16482246102300212F
:1013E00000F034F9002804D01A4878445C3800F042
:1013F0007DFA10BD0F4870B5006D44080B486400BD
:1014000000F048FA0A4800F045FA0A4800F042FAAB
:1014100009E0206D450820466D0000F03BFA2046AB
:1014200000F0EDF82C46002CF3D170BDD80200205E
:101430002C03002080030020980100209C01002044
:10144000A001002072000000335C01007700000062
:101450001D5C0100075C0100F8B5264C4E00069D9E
:10146000A6420AD8A64201D1002806D15E00A642B3
:1014700003D8A6420AD1002A08D00D24240425420C
:1014800033D02946002000F037FAF8BD0C461C4343
:1014900011D4994207D0C81A02D3EFF30080F8BDE7
:1014A000EFF30080F8BD801A02D3EFF30080F8BD9F
:1014B000EFF30080F8BD09242407E5008B4207D034
:1014C000581A02D3EFF3008006E0EFF3008007E044
:1014D000101A03D3EFF30080A04303E0EFF3008082
:1014E000A043284380F30088F8BD009500F01CFA63
:1014F000F8BD00000000E0FF0EB50191009000F083
:101500000DFB029069460120ABBE0EBD08B56946D1
:1015100000900220ABBE08BD1FB56B4607C36946ED
:101520000520ABBE04B010BD1FB56C460FC46946A4
:101530000620ABBEF6E708B5694600900920ABBEB1
:1015400008BD1CB500900A2001916946ABBE1CBDC8
:10155000704708B5694600900C20ABBE08BD7546C3
:1015600000F0ECF9AE46050069465346C008C000DD
:10157000854618B020B5FEF72FFE60BCB6460026A3
:101580000027C0C5C0C5C0C5C0C5C0C5C0C5C0C591
:10159000C0C5403D490849008D46704770B50646B4
:1015A00000F0D2F9056830460B30C408E400B442BC
:1015B00001D8002070BD68682A46002818D001684C
:1015C000A14211D30B46214608318B4208D3436810
:1015D00001194B6003681B1B0B605160046001E044
:1015E00041685160001D70BD024640680028E6D188
:1015F0002146284600F0B0F90028DCD170BD70B556
:101600000446051F00F0A0F90068002C1AD04468B9
:1016100001E020466468002C01D0AC42F9D3016897
:101620000A18AA4204D12A6805468918016000E018
:10163000456028684119A14205D161686960216847
:101640004018286070BD6C6070BD000070B5C46843
:10165000A50713D0650211D4D51FF93D0AD0FF3D6F
:101660006D1E07D0FF3DFF3D022D07D101462431FD
:10167000012305E0074E5D1EB54201D3012070BD78
:101680000161C36141600F2109028C431443C460AE
:10169000002070BDFFFFFF00C1688022114392034C
:1016A0009143C1600021816001607047F7B5154624
:1016B0000C4682B0506900903748D768074209D07D
:1016C000A9690098FFF73DFF002815DB3248C043A9
:1016D0000740EF60314EB44200D826463B463246C2
:1016E00002990098FFF718FF4200A9695208B21A40
:1016F00089180028A96106D02846FFF7CDFF0020F1
:10170000C04305B0F0BDA41BE4D10020F9E770B5DB
:1017100004460569C06A6168884200D80846E168E5
:101720000522D2049143E160C90314D5A84209D02F
:101730002246411B2846FFF7B9FF002802D00020AF
:10174000C04370BDE56200206560A060E0680121D3
:1017500009048843E060002070BD10B50446C068ED
:1017600020218843E060A16AA06988420ED020460B
:10177000FFF7CDFFE06803210903884310210843E8
:10178000E060A06AA0612069E06260600449E068EE
:101790000840E06010BD000010000200FFFFFF7F66
:1017A000BFBFFFFFF7B516460C460098002843D090
:1017B000104600F06FF82078611C61280AD072286A
:1017C00002D0772839D102E00125002404E0022567
:1017D000042401E02D4D0824022203230127087868
:1017E000491C2B2806D0622807D02039C87F7428CE
:1017F00007D008E01D431443F1E7042005433C43B0
:10180000EDE71020044300982146FFF775FE411CC8
:1018100013D00021316171600121F5604902F1614D
:101820007061200704D530460222002100F0DCF868
:10183000306D384330653046FEBD0020FEBDF8B542
:101840000D460646124C206DC10704D0410804D055
:1018500044086400F7E7224610E05420FFF79EFE9C
:10186000070010D07908206D490001221143084378
:10187000542120653846FEF7CDFF3A4629463046CA
:10188000FFF790FFF8BD0020F8BD000002800000C7
:10189000D8020020F8B50446002647690069009088
:1018A000E568A80717D02046FFF731FF3846FFF755
:1018B0002DFE002800DA761E280502D50098FFF7D5
:1018C0009EFE4C212046FEF7A5FF206D40084000FB
:1018D00020653046F8BD0020C043F8BD10B5044671
:1018E000C046C0462046FEF74BFC10BD10B500F0C8
:1018F000FBF800F0F3F810BDC80212D54803400F02
:10190000002804D0C803C043012188407047EFF38A
:1019100000800001000903210907084380F30088C3
:10192000704700207047000010B500200249029A5D
:1019300000F016F910BD00000000F87F0048704765
:10194000D40300207047000000487047DC030020EB
:10195000704770477047704738B504460A46002004
:101960006946C046C046002805D002462046009978
:1019700000F02CF9012038BD10B5012000F07BF9F2
:1019800010BDF8B5C046C046054600200C460C20E8
:10199000C0460646A819A0420DD932466946002025
:1019A000C046C046070001D100F065F90098A0428A
:1019B00000D00546C419FFF7C7FFF61D07460560AE
:1019C000F008C0004619284600F008F8B44204D0D8
:1019D00031463868A21B00F0F9F8F8BD002101601B
:1019E000416070470C207047F8B5044616460D4616
:1019F0004769007B800730D03846FFF79CFD002800
:101A00002BD132461026002A25D0012A02D0022AE4
:101A100023D104E0204600F0F3F845191BE03846D6
:101A2000FFF797FDE16831430028E16004DA2046C2
:101A3000FFF732FE0120F8BDC9030BD56268E16AE9
:101A4000914200D81146A26989182269891A8142F7
:101A500000DD08462D18002D01DA0220F8BDE16AEC
:101A60006068E268814206D29103E06203D50121F9
:101A700049048A433243A669AE4211DCE16A8142DD
:101A800001D90B4600E003469F192369FF1AAF42B4
:101A900006DD814201D90F4600E007469F4206D18C
:101AA000202002430020A060A56220600DE0AD1B55
:101AB000E669AE1B8142A66000D90846C01A281A02
:101AC00020605819606020208243034802400020B3
:101AD000E26040342072F8BDBFCFD7FF10B50028B8
:101AE00001D000F06DF810BD10B5014602A000F065
:101AF000A8F8012010BD00005349475254524544F4
:101B00003A2052656469726563743A2063616E2796
:101B100074206F70656E3A200000000030B5441CE0
:101B200003E00178401C00290DD08107F9D10B4B4F
:101B3000DD0104C8D11A91432940FAD0001B0A06DE
:101B400003D0C01E30BD001B30BD0A0401D0801E72
:101B500030BD0902FCD0401E30BD00000101010172
:101B600010B50C461107090F092904D00A290AD01B
:101B700008290CD104E011460820FFF7BDFE06E05D
:101B8000510606D501E0510601D50120C0072146C6
:101B900010BDD10607D501010909CC084907000E7F
:101BA0000006044309E0410F20024907000A0143EF
:101BB000200E00061D22D14101430846E7E7000040
:101BC00001491820ABBEFEE72600020010B503460F
:101BD000406801E003464068002801D08842F9D3FC
:101BE0001868C3188B4206D0CB1CD808C000001D53
:101BF000411A521A0146081D0A60FFF700FD10BD88
:101C000010B50146C268900703D0900607D5886AD0
:101C10000AE000F03DF801210160881E10BD8B69CB
:101C20004868C0180B69C01A40310B7A002B02D0EB
:101C3000497A401A10BD1103FCD50028FADD401E78
:101C400010BD70B505460C460A2000E06D1C00F082
:101C500018F8002D06D028780028F7D102E0641C7F
:101C600000F00FF8002C02D020780028F7D10A20CD
:101C700000F007F870BD10B500F00EF8FFF72EFF6A
:101C800010BD08B5694608700320ABBE08BD000052
:101C900000487047D403002010B5012805D000216A
:101CA00003A0FFF7CEFF012010BD09A1F8E7000057
:101CB00053494752544D454D3A204F7574206F6635
:101CC0002068656170206D656D6F7279000000009D
:101CD0003A2048656170206D656D6F727920636F81
:101CE000727275707465640070B58C180578401C4C
:101CF0006B075B0F01D10378401C2A1106D10278D3
:101D0000401C03E00678401C0E70491C5B1EF9D194
:101D10002B0705D40023521E0DD40B70491CFAE783
:101D20000378401CCB1A921C03E01D780D70491CEF
:101D30005B1C521EF9D5A142D8D3002070BD0021F2
:101D40000068002802D01C30491CF9E788B27047AF
:101D500000210160406070470268CA61002A02D118
:101D60000A461C324260016070470022CA61426824
:101D700011601C314160704703688B4209D01A46DC
:101D8000DB698B42FBD1CB69D361002B07D11C32BD
:101D900004E0CA690260002A01D1024642600020C4
:101DA000C861704701460068C2690A60002A00D114
:101DB00049600021C161704710B514460A46406869
:101DC000194623460BF0CEFA10BD0000F8B5404886
:101DD000006805682878411C29701B4F398A253115
:101DE0004E09741C002809D1002021460BF0FEF892
:101DF000388A25304009401C6880B41C01202146E7
:101E00000BF0F4F8A8880019A880F8BDF8B53048A0
:101E1000006806683078401E30700B49098A253109
:101E20004F097C1C000606D10025284621460BF0F0
:101E300055F97580BC1C012021460BF04FF9B08884
:101E4000001BB080F8BDC04614050020011F002211
:101E50000A6040687047B0B50D460446411E88418F
:101E6000511E1F220A43213291B20AF0FDFF0028C1
:101E700006D0858001688160002C03D1402103E0F9
:101E80000020B0BD7F21C9430173001DB0BD80B5E6
:101E9000411E88410BF020F880BD000070B50B4C4E
:101EA00001250422204629460DF078FE084E3060B8
:101EB0000622204629460DF071FE31680860306820
:101EC0000168002088804880087070BD10050020DF
:101ED0008C06002080B5FFF7E1FF80BD10B51446E9
:101EE0000A464068194623460BF0E1FA10BDE0B5FA
:101EF000022201ABFFF7F2FF002801D0002004E02E
:101F000001A8017840780002401880B28CBD1CB551
:101F10001F2903D801AA1180406805E0406801AC80
:101F200022460BF085FA2188401800791CBD1CB5AB
:101F30001F2903D801AA1180406805E0406801AC60
:101F400022460BF075FA2188401800791CBD1CB59B
:101F50001F2903D801AA1180406805E0406801AC40
:101F600022460BF065FA2188401800791CBD80B527
:101F7000017A8A0901219143001F0BF00DF880BD01
:101F800080B50A46017A8B090121994340680BF01C
:101F90006BF880BD10B514460A46406819462346C2
:101FA0000BF0FBFA10BDE0B501AB1A70120A5A70C3
:101FB0000222FFF7EFFF8CBDBCB514464068202914
:101FC00004D301AD2A460BF033FA29884018047176
:101FD000BCBD0000F0B58DB005460AF027F90590AC
:101FE000844C206800F06CFD0646206800F070FD0F
:101FF0000746D020285C2C2141437F4A12685118A3
:10200000897D142903D10A2103220AF0D7FD2C4629
:10201000B4342846DB300490002E38D006950027D3
:102020000C970B97059D2878C0090BA90870734879
:102030000068D822805C0390481C29460831062697
:10204000324600F0EDFF0A97099728784006C00F46
:1020500009A90870481CA91C324600F0E1FF287845
:102060000F260640052E01D100F0B0FFE37B227958
:10207000029707AD019506988430009009A8314673
:102080000EF0BAFE41087E2907D8014606E0012677
:10209000002F4FD10027278051E001212970069D94
:1020A000696F0A680B9B9A422DD149680C9A91423C
:1020B00029D10746FF3F791E8F41032E23D1FF28E8
:1020C00021D0A088012780071DD5039801281AD1A7
:1020D000284600F01AFD607E012809D16089654913
:1020E000884205D007AA1178C0B2521C0EF0F4F94C
:1020F000207F00F017FF012004990870284600F0A7
:10210000C3F800261BE0A088C00715D0052E13D108
:102110000899079810F026FA4142414139400129B7
:102120000AD10398012807D107AA2846059900F08B
:10213000A3F80126002702E0002727800126218836
:10214000A07F002822D0002922D1401EA077A0889D
:1021500003210140481E81414800208028460BF0A1
:10216000EDFF0146207F00F067FE207F00F0DAFEE1
:10217000284600F025FD00F029FF00200499087092
:10218000284600F081F800F0E3FF2AE0002919D08A
:102190001848006800F09CFC002822D0284600F077
:1021A0000FFD607C012801D0154900E0462114355F
:1021B000284600F039FD2088401E208000F050FCA9
:1021C00000260EE000F002FF284600F0F9FCE0884F
:1021D000401EE0800021284600F072F8207F0AF0BF
:1021E000A1FA002F02D02088401E208030460DB07A
:1021F000F0BDC046880600200C0500200405002024
:10220000EE020000F0B585B016460D46044600F01B
:102210007CFC00F0DBFE0320C043C11C684601814A
:10222000012101824173BE21615A81722746BE3766
:10223000BA7EC272BA7C82730E4A891A4A1E9141D2
:10224000C1730173019600950FF0BCF82046283049
:1022500009F0D5FB3C34204609F0D1FB002038744E
:10226000B87C0AF05FFA387E800701D511F0D8F902
:1022700005B0F0BDFCFF000080B5FFF7C3FF80BDD7
:10228000D021FF224254704770B50446C520205C1F
:1022900010F0B6FF05462646C536F07A294600F00E
:1022A00051FEF07A294600F011FE00F0D9FB09F04A
:1022B000C3FF0246B07D214601F03CFE70BD000028
:1022C000F0B58DB00746D020385C2C2358435F4AC8
:1022D00012681018807D3C4694343A46B43203921A
:1022E0003A46D6320292142801930AD100F077FEC2
:1022F00005460AF0D5FB039B28183230A060012563
:102300001BE0A26856180025304611460AF06CFC06
:10231000002805D0F86FA1680A18A2606D1CF3E7C9
:10232000039B9888000708D4012007F0DAF9039B83
:1023300047490140A0684018A060988803210140E7
:10234000481E814148001880987B01220146009276
:1023500011408207D20F89184007C00F0818401E8D
:10236000987738460BF0EAFE01460398007F00F0AC
:1023700063FD0398007F00F0D5FD002602984671AA
:102380003846283009F03BFB38463C3009F037FB33
:10239000039BA1682068DA88002A02D1DA7E012A2C
:1023A00003D088424ADA002848D0987E002845D0D9
:1023B000988800071ED50BA98E800B9604A8009A5A
:1023C00042763C228276FF228275C681604A8282F2
:1023D0007A6F137A03768681C67505910932049265
:1023E0000896069110F038FB02980078800701D516
:1023F00011F016F902200DF04BFD012819D1039BB5
:10240000DA88002A01D03C2000E0432000901148E7
:1024100000680199405C0001C0431946A1230343B1
:10242000B12018400B7A9A1AD3B28A7A00990DF02B
:1024300011FE384601F068FDA168039B187F0AF081
:1024400083FB0298467128460DB0F0BD0C050020B4
:10245000FF0F00009006002070B58CB00C460021E4
:10246000102906D00F234B40555C08AEF554491C8B
:10247000F6E7002104AA042906D003234B409B0061
:10248000C35808C2491CF6E704A808A96D462A46A5
:1024900006F0E8FE0020042806D003214140890010
:1024A00004CD6250401CF6E70CB070BDF0B5B9B079
:1024B0001C460E46074601AD20202871102038909A
:1024C0000A90039200200090284600F075FA2846F2
:1024D0003946324600F068FA6A462846214600F03E
:1024E00067FA39B0F0BD0000B0B501200024134AEE
:1024F000134D2146A8470220124A2146A84704202E
:10250000114A2146A8470BF082F800F04DFE00F07A
:1025100044FE0E480E49418004700A242046FEF70E
:10252000BDF80CA0FEF7C2F80AF08DFE13A0FEF76E
:10253000BDF82046FEF7B2F8B0BDC0467B310410AE
:1025400005E0041091E2041071D90410F004002099
:10255000FFFF0000536572766963657320616E64E6
:10256000204368617261637465726973746963732F
:10257000206372656174696F6E000000456E6420AF
:102580006F6620536572766963657320616E64209F
:1025900043686172616374657269737469637320FF
:1025A0006372656174696F6E000000007047704768
:1025B000244800688821024A425000207047C046E3
:1025C0000000030310B504461D480068006990210F
:1025D000012213460CF0D4FA002804D001464460CE
:1025E00090200CF0BFFA174800688821425C521C0A
:1025F000425410BD10B50024C46110F0AFFB842814
:1026000000D08124204610BD10B50446007AF72181
:10261000014021720A4800680069902100220123CC
:102620000CF0AEFA002804D00146446090200CF073
:1026300099FA044800688921425C521C425410BD3A
:102640009406002004050020F0B585B0044600780B
:10265000822802D0042800D01AE1E51C261D042897
:102660002F4600D037466078FF2800D18BE0102835
:1026700028D03E282CD0052800D009E13078717888
:10268000090208188D4D698888420ED100202870F3
:10269000B0486880B048FEF709F8207961790902EE
:1026A0000918A279AD48FDF77DFE0DF017FB01205A
:1026B00028713078717809020818E880281D0AF01E
:1026C000C1FDE5E02878032800D9E1E00BF0ECFE3D
:1026D0002878012800D17FE00C2800D170E00A287A
:1026E00000D170E0032800D0D2E09648FDF7DEFF6D
:1026F0002879697909020818FEF753FB0F46002470
:10270000914B04902246FEF74FFB0E460290224664
:10271000234614F0CDFB0121C90700280191039045
:1027200000D14F40049839462246874BFEF73CFBC8
:102730000746049102983146FEF7D4FA0646FEF7A2
:1027400028FB02460B460398002801D0019843401D
:1027500038460499FEF796FA7C4B2246FEF724FB96
:10276000FEF7C0FA0246287A697A090208180A2197
:102770004143A879EB79009119020B18744831464E
:10278000FDF710FE84E0387879780902081841498D
:102790004018092800D97BE078440079400087443C
:1027A000043377777777317740695D48FDF77EFFAF
:1027B0003979002960D07A795A48FDF7F3FD5EE057
:1027C0000DF08CFA64E0287F697F09020818A97E61
:1027D000EB7E2A7E6E7E07E0287C697C0902081861
:1027E000A97BEB7B2A7B6E7BAF78ED78009028028B
:1027F000C0193502AA181B025B18093421460DF0D6
:102800003FF945E0494841E023A0FDF74FFF2B4841
:1028100040882B490CF08CFA002834D0014629A0BE
:1028200025E04348FDF742FF387979790902081815
:10283000B9790904FA791206511809183D48FDF7CB
:10284000B1FD3879797909020818B9790904FA795A
:102850001206511809183848FDF7A4FD174840889A
:1028600001210CF0EFF900280FD001463348FDF7A5
:1028700099FD0DE0294809E02B48FDF717FF0A20D4
:10288000FDF70CFF04E01CA000E02D48FDF70EFF53
:1028900005B0F0BDFFFBFFFF3E3E3D3D20414349FB
:1028A0005F4741505F504153534B45595F5245512B
:1028B0005F56534556545F434F444500F004002093
:1028C00007B201003D3D3E3E206163695F67617074
:1028D0005F706173736B65795F72657370203A2006
:1028E0004661696C2C20726561736F6E3A20307896
:1028F000253032580A0000003D3D3E3E20616369AC
:102900005F6761705F706173736B65795F72657328
:1029100070203A205375636365737300107B051054
:10292000B67A05109D7405101E7D0510907A05106D
:10293000DF7A0510D0780510C7790510DC74051012
:10294000E07C05105D7A05100000F43F000059405E
:10295000EB780510FFFF00003E7B0510607405104A
:1029600010B501460020064A137A012B01D1C0435D
:1029700010BD5C1C14729B00D218516010BDC04683
:10298000F8040020B0B50AF051FF064D2C1D0020C0
:1029900021460AF039FF2946143101200AF034FF9C
:1029A0002C60B0BDCC04002080B514F0A3F880BD2D
:1029B00080B514F0D3F980BD80B514F005FA80BD60
:1029C00080B506F04FFC80BD044901400448026810
:1029D000044B1340591801607047C046B0FFFDFF1B
:1029E000040000604F0002000248016808220A4308
:1029F0000260704718000060042801D01220704760
:102A00009D20704710B59A23DB43012905D1012A87
:102A10001C460FD01C465E340CE0002904D003296C
:102A200002D00229F3D005E0012A02D01C4660340E
:102A300000E09C1CFD22114201D0002201E01A4658
:102A40009532012901D0134600E09333181800197C
:102A500010BD000009480168802291430160704761
:102A60000648016880220A43026070477F210840BF
:102A7000024A13688B43181810607047C400002086
:102A8000014908407047C04630DFC900012189056F
:102A900008407047002070470121890708407047AF
:102AA0000121490608407047012149030840704749
:102AB000012189040840704701210904084070473A
:102AC0000121C90708407047012189060840704765
:102AD0004021084070470121490208407047012108
:102AE000C9020840704701210906084070470121CA
:102AF000490508407047416808229143416070478A
:102B000041688022914341607047416801229143AE
:102B1000416070478068704780B51021FDF778FEEE
:102B200080BD416820220A434260704741681022FC
:102B30000A4342607047416808220A434260704776
:102B4000826881607047416880220A434260704712
:102B500001218907C2680A43C26070470121490602
:102B6000C2680A43C26070470121C907C2680A43AC
:102B7000C260704701218906C2680A43C26070477B
:102B800001210906C2680A43C260704741680422F5
:102B90000A434260704702680160704701210902E0
:102BA00042688A43426070477047012109024268C7
:102BB0000A4342607047416840220A4342607047BE
:102BC000416801220A43426070470121490242687C
:102BD0000A43426070470000034A0A40C168034B41
:102BE0000B409918C1607047FFFF0F000000F0FF15
:102BF00001210905C2680A43C26070470121C90565
:102C0000C2680A43C260704701218905C2680A434D
:102C1000C260704701218A0243681343436049023E
:102C200042680A434260704704480268044B1340FC
:102C300009030909591801607047C046D0000020F7
:102C4000FF0000F05C214143DD480A580123DB0608
:102C500013430B507047C04610B55C214143D84820
:102C60000A5801235C05A2430A500818016A5A0752
:102C70009143016210BDC04610B55C214143012063
:102C800042078918DC23CC5840052043C850DC316A
:102C9000086A1043086210BD5C214143414808584E
:102CA0007047C0465C224243C5481018C26A120CE5
:102CB0000A70C26A120E4A70026B8A70026B120AA4
:102CC000CA70006B8002800E087170475C2141431E
:102CD000014808187047C046140100205C21414398
:102CE000014808187047C0461C0100205C21414380
:102CF000504808588004800E7047C0465C2141430C
:102D0000AF480858C0B2C0097047C0465C21414373
:102D1000AB4808588004800E7047C0465C2242438E
:102D2000A7481018C269120A0A60036A1B069A189B
:102D30000A60006A000AC0B2486070475C214143E3
:102D40009F4808584000400F7047C0465C214143EF
:102D50009B4808584001400F7047C0465C214143E2
:102D6000344BC8581F2202401F2A01D0104600E0F1
:102D70002020C958090600D410467047B0B5044653
:102D80005C214C438E4D6019FDF744FD6059402194
:102D900001436151B0BDC0465C2242430148135813
:102DA0001150704700010020B0B50A7812044B782A
:102DB0001B069A185C23434381481818C36A9BB2C8
:102DC000D218C2620A798B78C978046B044D254009
:102DD0000902C91849199206920A89180163B0BDFF
:102DE0000000C0FF10B5FF22120691435C2343434D
:102DF00008481C5814406118195010BD10B55C22C9
:102E0000424304481358FF242406A34309065918D3
:102E1000115010BD0401002010B55C22424305484A
:102E200013583F242402A3438906890C59181150D2
:102E300010BDC0460801002010B55C224243604826
:102E400013583F242402A3438906890C59181150B2
:102E500010BDC04610B55C224243594810180A689C
:102E6000C369DBB212029A18C261CA784968036A60
:102E70000D4C1C400902891889B26118016210BD0D
:102E8000B0B55C21414306480A58064B1A400C581D
:102E9000054D25405219D218521C0A50B0BDC046EB
:102EA000FC000020FF7F00000000FFFF5C21414389
:102EB00043480A5880239A430A5070475C22424391
:102EC0000148135811507047E400002010B55C22EF
:102ED00042433B48135807242407A34349074908A2
:102EE0005918115010BDC0465C2242433448101896
:102EF0000A68836982610979C269FF239A4351187C
:102F0000C161704710B55C21414305480A580B5810
:102F10007F24A343D2B21A43802313430B5010BD26
:102F2000F80000205C21414325480A5880231343C0
:102F30000B5070475C2242430148135811507047B0
:102F4000E000002010B55C2242431D4813580724BE
:102F50002406A343490749095918115010BDC0461A
:102F600010B55C22424316481018C26A03462C333F
:102F7000202904D180210A431A601F2104E0802403
:102F8000A2431A601F221140C26A1F239A4351189C
:102F9000C16210BD10B53F2211405C234343084875
:102FA0001C5894436118195010BDC0465C21414320
:102FB00003480A580123DB0353400B507047C046B7
:102FC000DC00002080B505F0EDF880BD80B505F08F
:102FD00011F9C0B280BD80B505F060F980BD80B543
:102FE00005F074F980BD80B50AF05DFD80BD80B547
:102FF0000AF05BFD80BDF0B585B014460D4606466F
:1030000001AF384604F04CFD019830707878287094
:10301000B878207005B0F0BD80B5FDF75DFB80BDD0
:1030200080B5FDF73FF980BD80B51346CAB2194699
:10303000FDF7C0FB80BD0000BCB50C460146394D14
:10304000022801D0281D01E0284614302860019391
:10305000069B009323460AF0E7FA022801D00121DB
:1030600000E00021C943002800D101460846BCBD4C
:1030700010B514460A4601462A48006823460AF05D
:103080004EFB002801D40221CC43002800D1044685
:10309000204610BD80B5032809D002280AD1214955
:1030A00008681431884205D00AF05CFB80BD00201E
:1030B0000AF07AFB80BDC046F0B585B00E46194CCB
:1030C000022901D0211D01E02146143121600A9F0F
:1030D00000280AD0022812D104A800900846114600
:1030E0001A463B460AF0C8FB10E00392B21E50425B
:1030F00050411D460AF088FB039A2B46216804A81C
:1031000000970190084631460AF0C8FB042801D018
:10311000012100E00221C943002800D101460846F0
:1031200005B0F0BDCC04002080B506F0E1F980BD0B
:1031300080B50AF089FC80BD80B506F095FA80BDA7
:1031400080B506F099FA80BD80B50AF0B1FC80BD6B
:1031500080B505F063F980BD80B505F075F9C0B2A2
:1031600080BD80B505F090F980BD80B505F096F979
:1031700080BD80B5FFF724FC80BD80B50120FFF73E
:1031800016FA00F071FC00F05FFC002801D100F09D
:1031900004F80120FFF70AFA80BD80B5012001463E
:1031A0000AF0BAFF80BD000070B598B011A80024E5
:1031B000048004AE57A1342530462A46FDF7B9FAFB
:1031C000304600F043F9002805D001465EA0FDF727
:1031D000E9F800F069FF12AA547108201071E1208B
:1031E000D0702A2090701220507015700621204651
:1031F0000CF0DCFA002804D001465C48FDF7D2F858
:1032000002E05B48FDF752FA002018210CF0CAFAE0
:10321000002804D001465748FDF7C4F802E056A044
:10322000FDF744FA012017A90CF02EF9002804D06C
:1032300001465D48FDF7B6F802E05C48FDF736FA56
:10324000002001460BF0F6FC002804D00146584847
:10325000FDF7A8F802E05748FDF728FA14A80090F7
:103260000120002516AA15AB29460BF0E1FD12A896
:1032700041790279C3788478467800780094019681
:1032800002904D48FDF78EF808244C4A2846214606
:1032900004F0E4FB002804D001464948FDF782F819
:1032A00002E04848FDF702FA0025022111AA28464B
:1032B00004F09AFB002804D001464348FDF772F859
:1032C00002E04248FDF7F2F901200BF0FDFD002875
:1032D00004D001463E48FDF765F802E03D48FDF7A1
:1032E000E5F91020009401900295012128460A4634
:1032F0002B460BF0F5FD002804D001463648FDF7BB
:1033000051F802E03548FDF7D1F93548FDF7CEF91F
:1033100018B070BDB8080020AE21000014000102F2
:1033200000001E00F7000000A00F00006400021063
:103330000802010317000100000101010101010061
:1033400000010003000400004572726F7220696E74
:1033500020424C455F535441434B5F496E6974288A
:1033600029203078253032780D0A000028750510A4
:10337000677B0510F975051020205375636365732D
:10338000733A206163695F68616C5F7365745F7431
:10339000785F706F7765725F6C6576656C20636FC0
:1033A0006D6D616E640000007E760510E67B051091
:1033B000BC760510137C0510DE790510F871051038
:1033C0006F770510937C05102B770510607C051036
:1033D000ED760510337C051038760510B17B0510AD
:1033E000C57C051070470000F8B5044600788228B7
:1033F00001D0042824D1042801D0042000E00320B7
:103400006178FF291CD125183F20800269780902C4
:10341000014003208002814212D10020C6430A49A4
:10342000091D761C084A127A964207D20F1D0968B8
:103430002846884701283946F3D1F8BD0028FCD139
:103440002046FFF701F9F8BDF8040020F0B597B069
:103450000546C07A1224802800D95AE2298C1729FF
:1034600000D256E2F948821D914200D951E2298AE0
:10347000172900D24DE2814200D94AE2A87E0028F5
:1034800000D146E210F072F800280BD0E87E002848
:1034900000D13EE2802800D93BE2287F401E0E2862
:1034A00000D936E2EA4C342220462946FFF7B8FD1F
:1034B000E84814905320C04316900CF0DCFA012821
:1034C00004D0E07A002801D1149811E02546169C1A
:1034D00024340CF0D0FAE97A6143DE4A50431018E4
:1034E00044180CF0C8FAE97A4143DB4848432018F5
:1034F000163014900CF0BFFA012811D1169B184613
:103500004C30D34C2189414318463030A27A424393
:10351000501819463431227B4A438018099002E042
:1035200000200990FC4CE08911900CF07AFB0128F6
:1035300001D00CF094FB10F0CBF901280AD1169CB5
:1035400024340CF098FA6043F34CE17A4143083993
:10355000039101E000200390F0484C3013900CF0F0
:103560007EFB012815D00CF05CFB012811D029202E
:10357000205C00280DD12520205C002809D12620C0
:10358000205C002802D0E5484C3001E0169810304D
:103590001390E2486C3012900CF061FB012815D0BA
:1035A0000CF03FFB012811D02920205C00280DD110
:1035B0002520205C002809D12620205C002802D08C
:1035C000D6486C3001E01698283012900CF047FB7A
:1035D0001090A07E0090E07F0F900CF04CFA0790C6
:1035E000E07F01900FF0C5FF0890E07F029010F09F
:1035F0003CFA002510F06EF901282846159549D1AE
:10360000607F0A2800D30A20169D24354543C03D1B
:1036100000260FF0A9FF01280E961BD10CF02BFA03
:10362000012802D01698403001E016983430BB498A
:10363000E031A27F4A43101816994C31E27F914045
:1036400046180CF018FA012804D116983C30E17A9B
:1036500041437618AF190FF089FF05460FF084FF3C
:1036600006462E400CF007FA304001280E9808D18B
:10367000E07E401E03210143A07FB0224243D0439D
:10368000401A3C180CF0EBFA6043A34CA34908180D
:103690003030159D06900CF0EEF90128284608D12F
:1036A0000DF0BAF80128284603D12220205C169993
:1036B000484305900FF058FF0128284620D197482D
:1036C000D430A17E414316983430E27A42435518F3
:1036D00000260FF04BFF012810D10CF0CCF9012887
:1036E0000CD1169A10464430217F414310464C308D
:1036F000E27E424350188438A67E4643A819159DA1
:103700000E900CF08CFA0128284631D10CF0B3F958
:10371000012802D0169E483604E016984C30E67A0E
:1037200046430C3E2327E05D00250028284605D0AF
:103730000CF0A1F9E05D4042032188438019242662
:10374000A15D169A50324A43871810F0C3F8012839
:103750000CD10CF084FA012808D10FF005FF0128E4
:1037600004D1A55D002D01D0169D3C357819159D1D
:103770000D900CF080F90128294609D110F0A6F827
:103780000128294604D116983430E17A414314398E
:103790000C910CF070F90128294608D10CF063F95E
:1037A0000128294603D116983830E17A41430B911C
:1037B0002620215C2520265C72182920205C04929A
:1037C000002A14D002462820235C169D28464C303F
:1037D0005843F83848432723E35C2C4640345C4385
:1037E0004E4B1B194C4C483373431D18104615950E
:1037F00000280A900CD002462A20205C474F3B4606
:10380000B03343432546C8375743FB18483B03E0D2
:103810002A20205C00232546039A28242C5D61433E
:10382000091827242C5D66433418601816D0169D9D
:103830002E46383666432C4620344C43A1192C467C
:10384000483444430E19143E09E0C046FA03000010
:103850001405002020FCFFFF70FDFFFF0026079DE0
:10386000149809990818169F39463031119C614304
:103870004018801813994018129941184C373C464B
:103880000F9A94400919109A012A06D1234C009AE4
:10389000544361184524A40009191F4C089A012DAE
:1038A00002D1019DAF40C919049D012A05D1169886
:1038B000001D029A9040411868390698059A081828
:1038C00080180E9940180D9940180C9940180B99C2
:1038D00040180A99CD4202D016990818443015991B
:1038E0004018C0188019616840180321C943E28D4F
:1038F000D21C0A40A38DDB1C0B409A18238EDB1CC4
:103900000B40D118401A03D40AF0FAFC002400E05E
:103910008724204617B0F0BD1405002090FEFFFF5D
:10392000F0B583B00446434804602046FFF7DFF853
:1039300005462046FFF7B4F806466846FFF74BFBFE
:103940000099091A4B0B47490A681146D831002BD8
:1039500002D11060012000E00020087036480068A5
:10396000447B0021FF2C0AD02C206043334A12688C
:103970001018827C002A02D0416AC068FFE7012744
:10398000002E05D0002D03D100292A4E08D109E0D0
:10399000002D284E06D02A4A914203D1002901D099
:1039A000884700273068FFF787F8002801D00425F2
:1039B0001EE03068FFF76AF8002801D0012517E003
:1039C0003068FFF767F8002801D0022510E0306862
:1039D000FFF781F8052500280AD13068FFF77FF846
:1039E000002805D13068FFF74BF800281FD00025CC
:1039F0000120A840134909680A6802430A600020B0
:103A000012F070FFFFF7E2FA204608F08BFE15482F
:103A10000468607D012808D1217C0F200840E268FD
:103A20000909FFF7DFFC0020607503B0F0BD002F2F
:103A3000E8D1ECE788060020080500200C050020EE
:103A4000433605109406002080B512F043FF00288D
:103A500004D104480068C07A002801D0002080BD4D
:103A6000032080BD0405002080B512F04BFF80BD0F
:103A700010B5122400280ED0002A0CD00B2B0AD827
:103A800041700370036A5954491E4B1CFAD30261FA
:103A900000240475C061204610BDF0B585B0122623
:103AA00000285ED01F460D46044643788B4258D905
:103AB00020780521090381408F4252D80492029355
:103AC000FFF78DFA02462378206A405DA8420CD0A9
:103AD0000498002845D020460391294604931646B1
:103AE00000F042F803993246049B332078430E4697
:103AF000010A0818010C08187107D2085118421859
:103B0000581DC0B2C24001956800616A04920A5211
:103B1000FFF765FAC00803906278206A17463B46B3
:103B2000C75D97420DD07D00666A755B2678761D6D
:103B30000399F1406D1A2DB2049E711A09B28D429B
:103B4000EDDDC15C019A8154206AC254029883421F
:103B500006D1049801B220460AF0D2F9064600E0E8
:103B60000026304605B0F0BDF8B505461220002D00
:103B70001BD00C466A788A4217D92B6A195DA1427C
:103B800001D10020F8BD17463E46DF5D974201D0C7
:103B9000A742F9D10020974205D09955964202D10B
:103BA00028460AF0D4F9296A0C55F8BDF0B56D4FD6
:103BB000BD44714C6C4414214143694A5118CA896F
:103BC000002A51D00B1D012808D8694969440122F7
:103BD0008A8108701D6858682560606003940493AA
:103BE0006448684400218180029141800121017074
:103BF000CE02204C5F48684400905D48684406A9A6
:103C00001D4B6B44324609F0BAF80746042038438E
:103C100004282AD1184868440288002F01D1B242F2
:103C2000E8D1002A07D006A928460AF03BFB601914
:103C3000451C002FDED00398406802990691E90ADE
:103C4000C9B280224A400792401E2043401B401CBC
:103C5000C00AC0B2089006A805A903F0DDFF0498C9
:103C600009F05EFE074600E0002738463E4FBD449F
:103C7000F0BDC046FF07000030080000F0B5394F26
:103C8000BD443A4969440491044606790C207043C6
:103C90000021334F0A4688420AD0A3685B5C142592
:103CA0005D437B19DB89002B00D001220C31F2E748
:103CB000100636D001200290C10206A8FF2203910F
:103CC000FCF781FD00230425B3422FD2A1684819D7
:103CD000001F0278012A24D827486844029F878160
:103CE00002700593234B6B4400269E805E801F70FC
:103CF00014265643E94A921956689268049F3E601A
:103D00007A604A59009306A98918039B9A1A92B2BD
:103D1000174B6B4409F033F8059B0C355B1C267977
:103D2000D2E70025E8B2104FBD44F0BD206806A9D7
:103D3000039A0AF0B7FA00263546374620798742BB
:103D4000F0D2A068805D14214143D4484018001D82
:103D500009F0E6FD002800D005460C367F1CEDE793
:103D6000A0040020CCF7FFFF340800002808000062
:103D700020080000180800002408000070B5002585
:103D8000074EF07A85420AD2ECB2204606F01AFFBE
:103D9000002802D0204606F015FF6D1CF1E770BD2B
:103DA0001405002080B5FFF7E9FF80BD80B503480A
:103DB00003F0EAFE024803F0E7FE80BD280700207A
:103DC0007407002000207047F0B585B004920E46BD
:103DD00005464D240FF0AAFA0555066003904D30B4
:103DE0000121029041700191CB0400267C27049AA6
:103DF000E8B2864226D203980068C351C519542000
:103E000011492952522400202853422429535E2468
:103E100028555C24FF2129555A216854462107243E
:103E20006C52286168616B600499002902D050656A
:103E30002C3D2A60019800023F185C3202980578F8
:103E4000761CD5E705B0F0BDFFFF0000F8B50446CD
:103E5000D820FF212154B820255A01272F4026467B
:103E6000D836002F04D00EF05DFF3070FF2822D02E
:103E7000B83408F047FE2076FF2813D00021E8066A
:103E80001AD40D4608F03EFE29466076FF2813D16D
:103E9000002F02D030780EF03DFF207E08F028FE83
:103EA000072109E00721002F06D030780C460EF0DC
:103EB00031FF214600E00C210846F8BD80B5FFF730
:103EC000C5FF80BDB0B50446EFF3108072B625463D
:103ED000CE35A87808F03EFED120205C08F03AFEEE
:103EE00062B6A87808F0AAFBCE2000212152A87A59
:103EF000FF2801D00EF00EFFFF20A872287A80075D
:103F000001D50FF08DFBB0BDB0B50446D120205CCB
:103F100008F020FE2546CE35A87808F01BFECE20FE
:103F200000212152A87AFF2801D00EF0F3FEFF20D5
:103F3000A872B0BDF8B514460D4606460F46B83710
:103F40000420002E01460DD139884A0707D40322E8
:103F500011404A424A41022903D0510002E00121A6
:103F600000E006212170002E07D13988014004D1DC
:103F70002E20285C801D60700FE0002E04D02846A3
:103F800042300078801D00E00C2060702046083030
:103F9000696F09310622FFF743F8696FA01C491CBD
:103FA0000622FFF73DF820782F2101402170686F2D
:103FB0000078C007400E40182070696F097AC90167
:103FC000081820700FF0ACF92178400108432070E8
:103FD000714271413888042202409008084001D1A2
:103FE000082700E00E27002801D00C2011E0002E49
:103FF00001D03C2000E028202958002E01D042208A
:1040000000E02E202D5AE0192A46FFF709F878190A
:10401000801E60700020F8BDF0B5214FBD440D46F4
:10402000064601200390C1020BA8FF220291FCF773
:10403000CAFB002404272879844227D2A868C11922
:10404000091F0978B1421ED001290BD807AA039B8A
:104050009381117014224A43104989184A6889686B
:104060000892099104A900228A804A80039A0A7062
:10407000C05900910BA90918029A101A82B207A818
:1040800006AB08F07CFE0C37641CD4E728680BA94B
:10409000029A0AF007F9034FBD44F0BDA0040020C6
:1040A000D4F7FFFF2C08000072B6FEE7FEB5694D9D
:1040B000286810300021062905D004C8528801ABB9
:1040C0005A52891CF7E7EFF3108072B6286804682B
:1040D0000027076062B6E00702D000200BF0A8FFBF
:1040E000A00702D501200BF0A3FF600702D5022034
:1040F0000BF09EFF200702D503200BF099FFE0068E
:1041000048D504200BF094FF44E0780001A90E5A32
:104110000097BF002868C019006901880288B24270
:1041200028D08908891C89004418A17803220A40F4
:10413000012A02D0002A03D11CE0817A083004460B
:10414000480603D420460BF06EFD0AE0E078132801
:1041500007D2800012490A58211D204690470028A6
:1041600005D12868C019006921880180D5E70020A1
:1041700012F0B8FBEFF3108072B62868C01900691E
:1041800041880288914202D100210180418062B6BB
:10419000009F7F1C032FB8D10BF0D0FDFEBDC046A1
:1041A00060730510F8B501201C21294A9047294F5A
:1041B0003860E44DA88D401E03263043401C800823
:1041C000C01C04242146224A904739684860E88D83
:1041D000401E3043401C8008C01C21461C4DA8478F
:1041E0002A4639688860D74D288E401E3043401CCF
:1041F0008008C01C214690473968C8600BF0CCFD90
:104200003868426800211180518083681980D1800C
:10421000AF8D7F1E37437F1CBF0897805980D980A0
:10422000EF8D7F1E37437F1CBF089F80C768398092
:1042300002614361F9802A8E521E3243521C920859
:10424000BA80798087612246FEF7EEFEF8BDC0464F
:1042500089FB04109406002010B5134A13690F243B
:104260001C43146101231B044003C00B58409061A0
:10427000086810644868506488689064C868D064AE
:10428000CC20106010BDC04610B5074A13690F243A
:104290001C43146101231B044003C00B5840906170
:1042A00011643320106010BD0010004070B504464A
:1042B000114E03F045FD05463068C00708D1601C6B
:1042C000FAD003F03DFD401BA042F5D3032070BDA2
:1042D00031680C2001400C290BD108494A6833464B
:1042E000083B1B6813434B60316801433160012078
:1042F00070BD002070BDC04610100040682A00202C
:1043000070470000F0B587B0064606A80027077082
:104310001224012901D9204649E00D46F2480068DF
:10432000029005F0E5F9002841D102995C31087846
:10433000C00711D1C87828430191C87005A807218A
:104340000170002E12D0022E08D0012E20462ED150
:1043500006A81021017009E00C2028E006A8202101
:10436000017005A900F048F9002820D1284600F086
:10437000FEF900281BD10298603000F0B3FA002843
:1043800015D10120069901430198017000F07EFAD1
:1043900003AC204600F072F920460CF0DFF8F84339
:1043A00003900448049020460CF0B6F9384607B054
:1043B000F0BDC046FF9F0020FEB5E64804680BF044
:1043C0004EFC002802D08948807E00E00120C5B262
:1043D00000261227B54211D0606DC15D01290AD1B6
:1043E000C01910380078800705D501AA1670002082
:1043F000012100F073FA1437761CEBE7FEBDC046CE
:1044000080B5FFF7D9FF80BDF0B587B0D14804680B
:1044100006A9049100200190087005AE01203070BB
:1044200000F034FA5D200394275C781E3D468541F8
:10443000202038404442029044410498314600F024
:1044400045F8002F01D1012837D12C4031D105A8E2
:10445000007800282DD0039C2834029D002D03D025
:104460002178002000F0CAF806A80078012802D1BF
:10447000002000F07DFB00F0C3F8002804D10020EC
:10448000012100F0C9FA0190002D0AD02178012005
:1044900000F0B4F8002804D00198002801D000F002
:1044A0003DFB06A80078012807D1062012F01AFA71
:1044B00003E00120014600F0AFFA07B0F0BDC046AE
:1044C00080B5012000F046FB80BD7047FEB50C466C
:1044D0000546F54806680BF006FCD2498A7E0021A5
:1044E00001952970012302942370002800D01346FF
:1044F000D8B21427474308460B460A468F4211D0CC
:10450000746D6418A57C012D0AD1E57C002D07D0BF
:10451000022D00D10123A4780120A40700D5024672
:104520001431EBE7012802D10121019C2170012BFC
:1045300002D0D1B2012902D10021029A1170C0B279
:10454000FEBDC04614050020F8B5B64A927E12257D
:104550008A4225D9002800D1014614224A43D24874
:104560000068436D99184C78A006C60F0020002EF5
:1045700002D01027274014D1002E02D10826344043
:104580000FD19E5C4C680889214600F08FF9D24912
:10459000884208D00019817848070BD4D42000E065
:1045A0002846C0B2F8BD032E2846FAD8F1001048BC
:1045B000C840F6E7032E2846F3D8C0467E44367935
:1045C0007600B74401060D010320014005D10846DD
:1045D000E7E703200140012906D02B20C043E0E794
:1045E000032001400229F8D10020DAE71405002059
:1045F00000D4D4000020704712207047002070477C
:10460000BCB5E64D28685F21405C800701D40C24CE
:104610000FE06C46204611F06FFA204600F062F978
:104620000446002805D12868663069460622FEF750
:10463000F7FC2046BCBDC046B0B50D460446F54863
:1046400000685C21405C8006800F05D00120287046
:10465000204600F06FF80EE000F050F8002805D07A
:1046600001202870204600F06DF804E0002028703A
:10467000204600F055F80020B0BDC046B0B5044655
:10468000002108252A46FEF7CFFC2078DF210143D0
:1046900021706078092101436170A1782943A170DC
:1046A000EF4909685C22895C890602D50F2108431D
:1046B00060700BF0D4FA012807D160781221014311
:1046C0006170A07807210143A1700EF04DFFC0B2C8
:1046D000012807D16078E02101436170A078802132
:1046E0000143A170B0BDC04698060020DC480068B8
:1046F0005F21415C012008407047C046D8480068EF
:104700005C21415CCA0606D4890606D45C30C178B7
:104710000120084070470120704703207047C046C1
:1047200080B5034909680622FEF77AFC80BDC046C1
:104730009006002080B5F549096866310622FEF72B
:104740006FFC80BD80B5F149096860310622FEF733
:1047500067FC80BD98060020704780B5002A03D012
:10476000084600F08BF880BDFFF7AFFE80BD00204B
:1047700070470000FEB51F460192029105460124D4
:10478000702120460BF000FAE12189005A22815263
:10479000F64E3060012D17D1012006210BF0F4F9FF
:1047A000014630688163012F0ED101250E2728466E
:1047B00039460BF0E9F93168C864284639460BF0F0
:1047C000E3F9014630680165029901290BD101988E
:1047D000012805D11C2001210BF0D6F93168C862EF
:1047E000CB48847E01E00021C162142120460BF0F9
:1047F000CBF9316848650C4C0421012220460BF0AE
:10480000CDF93168086203250222204629460BF0C3
:10481000C5F931684862054A072308462946FFF76B
:1048200027F9FEBD140500201005002015FD041019
:104830001CB5CE480468FFF7DDFE882807D00C2899
:1048400005D05D34002806D1022060701CBD052013
:1048500012F048F81CBD0020607020787F210140D4
:10486000217001A9862048708020087002200AF07B
:104870007DFA1CBD80B5FFF7DBFF80BD80B5002051
:1048800000F0F2F800F04AF980BD0000B748006877
:104890005C21415C8906890F04D05C30C17802221A
:1048A0000A43C2707047C04698060020B0B50A4A55
:1048B00003280FD300239DB24C5D022C03D16D1849
:1048C0006D78012D05D01B195B1C9CB28442F2D37C
:1048D00000E01A4690B2B0BDFFFF000080B500F0C6
:1048E00061F880BD80B50BF049FE80BD70B5034610
:1048F000002900D10A469D480068416D012B0CD16A
:1049000014235343CA5C012A33D0022A3ED1CA1869
:1049100094780420204390703AE014235343C9183C
:104920008E1C8978890721D500242146FFF71CF9C0
:10493000784800684E21405CC00717D07648006870
:1049400080694322022529462B460AF019F90028DE
:104950000CD001468571C4710472FF204871822019
:1049600008710420487228460AF0FCF800203070D4
:1049700070BDC9184A788B78134302221A438A7093
:1049800000210122064BFFF788F870BDC818807817
:10499000C9184A7802438A7070BDC0469806002044
:1049A00020BF0200F8B5044670480768002C0ED0FE
:1049B000786D807C012824D100200146FFF7C4FDDA
:1049C000054600281ED1FFF71BFE064600E00C2618
:1049D00020460BF0B1FD0546002813D100252046E6
:1049E00029462A46FFF782FF786D002C0CD0012162
:1049F000C174002E06D100252846294600F00CF887
:104A000000E0D3252846F8BD0025C57400F086F8DF
:104A1000F8E7C04698060020B0B502465348006843
:104A200005465A35002908D1A97889060024890F3E
:104A300014D0697902230B4010D0002A01D0094B11
:104A400003E07D21C9002B884B43012421462246E7
:104A5000FFF723F86879FD21014069712046B0BD58
:104A60009806002030750000F8B5044614256C4304
:104A70003E480668706D00198178890701D40027C7
:104A800003E0801C0021017001270BF0E8F80028EA
:104A900002D01F48807E00E00120C0B245430020C4
:104AA000854207D0716D09188978890700D50027DC
:104AB0001430F5E7012F2D4F22D138680025294603
:104AC000FFF752F8134800684E21405CC00717D02A
:104AD00011480068806943220226314633460AF0B5
:104AE0004FF800280CD001468671C5710572FF2071
:104AF0004871822008710420487230460AF032F86A
:104B00003868406D00190021C174F8BD9806002076
:104B10001405002004050020940600207CB5134CE9
:104B200025685C20285C8006800F12D05C35E87810
:104B3000022630400DD101A86946FFF7C7FC69780D
:104B4000014306D1E8783043E87020680121FFF77F
:104B50000BF87CBD80B505490968496DC97C012900
:104B600002D10BF0E9FC80BD002080BD980600203A
:104B700080B5FFF7EFFF80BD80B501F065FD80BD1A
:104B800080B501F07BFD80BD80B501F089FD80BD61
:104B9000F8B50446058804F0DAFF0146284600F01F
:104BA00089F90546204600F0AAF91D2803D02328DC
:104BB00001D01B280ED16188EA88914205D80329CB
:104BC00003D3232867D1042965D82046FDF7CFF900
:104BD0000020F8BD204600F092F9A988CA066ED5DB
:104BE000012802D0AA78904269D110208143A9807F
:104BF0006A8929890326304600F0A6FA6188E88888
:104C00000091814200D99AE0204600F078F9421ED6
:104C10000121CA410023102A00D988E092001F46D2
:104C200001A39A583B469746DF4C0410E34C04100E
:104C3000EF4C04100D4D04106D4C0410354D041054
:104C4000354D0410354D04106D4C0410DB4C041030
:104C50002F4D0410E74C0410DB4C04102F4D0410B2
:104C60002F4D04102F4D0410354D0410092802D18A
:104C7000009904295BD3112802D10098062856D345
:104C8000A089401C81B22046FDF751F93B4600281F
:104C90004DD0014643E01D280DD1A888800612D4CE
:104CA0006A892989022000F03BFA00284CD1A888A3
:104CB00020210143A980204601F031FDF8BD2046A6
:104CC00000F04AF8F8BD08354220032102222B46A5
:104CD0000AF02EFD002837D177E70B4627E00523A1
:104CE00025E0334623E0009B042B1FD91FE00098EA
:104CF00006281CD3A089401C81B22046FDF717F975
:104D000001280BD002281AD1122108E000980228AD
:104D10000DD3009B581E800708D108E00421009E97
:104D2000B01EFBF779FD0029334600D00023009820
:104D3000984204D1074801682046884702E020468F
:104D400001F0DAFC842801D18420F8BD0020A8708D
:104D5000F8BDC046D40200201CB50446008801AB53
:104D60001880422002210A460AF0E2FC002801D005
:104D700084201CBD2046FDF7FAF800201CBD000071
:104D8000F8B50446EE4E3068C56A2969C1622F88BD
:104D9000002114222846FEF747F9042068811720D5
:104DA000E8802C812F803068416B45632961204663
:104DB00000F00CFC2046FFF7E3FEF8BDF8B5044612
:104DC00010F0D6FEF2480068466B002E32D037460F
:104DD00036693889A042F8D100257A89E8B20328DB
:104DE00004D8214600F0B0F96D1CF6E720461146C4
:104DF00000F0A6FB79892046FFF7BEFE002038812F
:104E0000E3480068426BBA4205D011461269BA42C3
:104E1000FBD1103101E0014634313A690A607989E9
:104E2000042903D1C16A3961C762CEE7016B3961D8
:104E30000763CAE7F8BDC04609888088084000D0EB
:104E400086207047098882888A43828000207047C4
:104E5000098882880A43828000207047F0B585B0B7
:104E600004930192029107460220384003900124E6
:104E70003C40F248056834350A9E2D68002D16D056
:104E8000002F0CD0002C03D02889029988420CD125
:104E90000398002803D068890199884205D12846E3
:104EA0003146049A9047002802D11035E5E70020EA
:104EB00005B0F0BDEB4A126834321268002A07D000
:104EC0001389834202D153898B4201D01032F4E717
:104ED00010467047E349096834310968002904D055
:104EE0000A89824203D01031F7E7FF207047087823
:104EF0007047C04680B58189FDF709F880BD80B54F
:104F00008189FDF714F880BD80B58189FDF71FF810
:104F100080BD10B54489042C00D0062461188AB2E3
:104F200001890020FCF797FF002800D0848110BD84
:104F3000EE4A126834321268002A07D0138983427D
:104F400002D153898B4203D01032F4E7FF2070471F
:104F500050787047B0B5044680880025C00501D45C
:104F6000284606E06289218902200AF0ADF900286E
:104F700000D0B0BD20896189042902D1FFF71EFF4E
:104F8000EEE700F0DDFA61892089FFF7F5FD0020EA
:104F90002081F14909684B6BA34205D01A461B6971
:104FA000A342FBD1103201E00A4634322369136078
:104FB0000A6B22610C63B0BDF8B5012090210AF0A4
:104FC000E3FDE54E3060904FF87A397B08181424E1
:104FD00021460AF0D9FD326800255563D562F97A79
:104FE00003462F46B9420AD01D615F701F703268B8
:104FF000D36225467D43451914337F1CF2E7002315
:105000001363814A127B5218CDB2AA420AD9654372
:10501000FF27475545192B61697033681D63491C8B
:105020002B46F1E79006000E411C114C0122204650
:105030000AF0B4FD31680862734DE87A297B0818DC
:105040008006010E022220460AF0A8FD3468606244
:10505000E87A297B08188006010E064A07232046B5
:10506000FEF706FD00F08CFDFFF78EFDF8BDC04693
:10507000100500209551041080B5FFF79DFF80BDFD
:10508000BCB50C46002813D02588204604F05FFDEF
:1050900001462846FFF70EFF002809D06088002847
:1050A00006D0A1891F2908D801A8018060680AE0FC
:1050B0002046FCF75CFF0020BCBD606801AD2A46BD
:1050C00008F0B6F9298840180079C10704D11B28D7
:1050D00008D01D2806D009E01E2803D3022108436A
:1050E000232803D12046FFF753FDBCBD204600F026
:1050F000E3FDBCBDB0B50C4605464888001D81B235
:105100002046FCF73DFF2846214604F047FE0028D4
:1051100004D02046FCF72BFF8120B0BD0020B0BD9D
:1051200010B5044608461146FFF702FF800000193B
:10513000C1B2E24800680022024BFEF7AEFC10BD8F
:105140009C0600203075000010B504460846114644
:10515000FFF7EEFE80000019C1B2D8480068FEF7E4
:1051600003FD10BD80B58108D44800683430006864
:1051700000280CD042788A4201D01030F7E7012194
:10518000090282880A438280072011F0ABFB80BDB0
:105190009C06002080B5406901490AF011FD80BDE0
:1051A00065510410E0B500200090054B0146024611
:1051B000FFF754FE002802D0072011F093FB8CBDAE
:1051C000554F041080B5FFF7EDFF80BD80B500207E
:1051D000FCF75DFE0C49098A2531490988420DD941
:1051E000491CFBF719FB0246422000210AF034FA61
:1051F000002802D0082011F075FB80BD0820002196
:1052000011F0C4FB80BDC0461405002080B5FFF737
:10521000DDFF80BD70B5D4490A685C21535A002176
:105220000225C64C8B4206D0166E765B864203D2B0
:105230000835491CF6E7214688B270BD9C0600205F
:1052400010B50446FFF7E6FFBC49884207D0C2000C
:10525000C54B1B681B6E9A185288A24200D00846A4
:1052600010BDC0469C060020FEB5029315460022E4
:10527000884223D80C46BC490F685C21795A002922
:105280001CD000920191FFF7C5FF06462046FFF7AC
:10529000C1FF0199491E814200D3014689B2B2B2D1
:1052A0008A420DD8386ED300C45CAC4204D1C01819
:1052B0004368029CA34205D0761CF0E71046FEBD71
:1052C0000098FEBD9D498A4200D10020FEBDC04627
:1052D00080B5FFF7B5FF9949884205D0C000A249C3
:1052E0000968096E081880BD002080BD9C0600205A
:1052F00080B5FFF78FFF9149884205D0C0009A49D9
:105300000968096E081880BD002080BD10B5964957
:105310000A685C21535A190409D0116E9CB2E4004A
:10532000611808390C785B1E8442F4D100E000213A
:10533000084610BD8C490A68116E5E23D25AD2000D
:105340005218083A824202D3401AC00801E00020F5
:10535000C04380B27047C0469C060020F8B5047870
:1053600002252146294302291ED1FFF7E3FF7E498A
:1053700009685C228B5A401C82B29A4210D2002CDF
:1053800008D0022CF7D1D7000E6EF75D2F43022F05
:10539000F1D106E0D7000E6EF75D002FEBD100E0F3
:1053A0000E6ED00080190838F8BDC04680B5FFF7F2
:1053B000D5FF408880BD00006B4800685C21415AE1
:1053C000002905D0006EC9000818801F00887047AA
:1053D0000020704780B5FFF7ADFF634909685C2284
:1053E0008A5A401C80B2904203D2096EC00008184D
:1053F00080BD002080BDC04610B5044608210AF0DB
:10540000C3FB594909685C2200238B5208665C3152
:105410004C8010BDF0B585B017460490524D2868F9
:105420005C24065B02465C325288964217D2029494
:105430000393002917D001970846FFF77BFF441C10
:105440002868B1B2A2B291420BD3C900006E4018D5
:10545000014608390822FDF7E3FD761EF0E7002734
:1054600012E0019F00E03446006EA1B2C900049A28
:1054700042544018039A42602868029BC25A521C48
:10548000C252006E40184780384605B0F0BDC04695
:1054900010B504460846FFF7BDFE33490968096E9A
:1054A00082B2D2008B5CA34205D0421E000410469B
:1054B000F6D1002010BD881810BDC0469C06002003
:1054C000FEB50D460446FFF777FF002834D0AC4206
:1054D00032D80646A0422FD32046FFF7B1FE04463D
:1054E0001648844228D0AE4200D32E463046FFF7FD
:1054F000A7FE1D490F685C26B95B4A1E824217D978
:105500000190054602948BB26D1CAAB29A420DD24C
:10551000396EA0B2C0000818D20089180822FDF721
:105520007FFD11480768B95B641CECE7029C019899
:10553000C243A2185118B953FEBDC046FFFF000078
:1055400070B50C46054601F0E5FBFF4E326840326F
:105550002846214600F0CCF93268383228462146E8
:1055600000F0C6F970BDC0469C060020B0B50546E7
:10557000806842890189422009F044FF04460028DE
:1055800010D1A868428901890120FFF7DDFDA868D4
:1055900081884A0603D502F097F9A868818802221B
:1055A000914381802046B0BDE0B501A80221018071
:1055B00000900020044B01460246FFF74FFC86385E
:1055C000414248418CBDC046394E041080B501F0BF
:1055D000A3FD80BD7CB504468068418904291AD1A9
:1055E00060688189491C89B2FCF781FC054617284F
:1055F00000D817251D4E308A854200D30546A36882
:10560000988800070FD4198902202A4609F0C8F9A2
:10561000002814D07CBDC36802200021062200F0BF
:105620008AFF86207CBDD888A8420ED0083342204D
:10563000032102220AF07CF80028EBD105E0A068E3
:10564000C580818808220A438280308A01AB587065
:1056500003251D70000A9870A068C468A1892046BF
:105660002A46FCF797FC658000207CBD14050020CD
:1056700010B504460078002801D0002010BD6068F5
:105680008189491C89B2FCF742FC0346A068428923
:105690000189022009F0BCF9002800D010BDA068E3
:1056A000C06881891922FCF787FCA068C0680121C5
:1056B0004180842010BDF8B51D4614460F460646AD
:1056C000FFF718FC0E21C943D22800D00C31708896
:1056D000081882B20699BA4205D90D200870002038
:1056E0002880862709E000270F702880B089C01C19
:1056F00081B230462346FCF7F1FB3846F8BDF0B5E1
:1057000091B0074609AC1020207478688189491D42
:1057100089B2FCF7ECFBA08178680FAE0EAD314684
:105720002A4600F04DF9368878680697B9684488AB
:10573000C868818907220290FCF73EFCE01F298897
:1057400004910121059180B203900196059887B2DA
:105750003C1D06988068C08884423CD8B0B209AA33
:10576000049901F034FE002835D0054610A80090B9
:10577000002208AB0698294600F0A0FE862828D013
:10578000002836D16E880898436806984068818959
:10579000C91D89B2039F3A46FCF70EFB0899098898
:1057A000B94216D1002814D107AF3E70300A787084
:1057B000284601F02BFE0646B870000AF8700298E1
:1057C0008189059A891889B204223B46FCF7E2FBDD
:1057D0000594761CBAE7012F07D106200A22019909
:1057E000029B00F0A8FE862003E002980599418004
:1057F000002011B0F0BDF0B58FB0014640680191B6
:105800008968CF680DAD0EAC2946224600F0D8F865
:1058100028880790FFF76CFD02462088029000253B
:105820002B4600950395002A069550D05088079086
:10583000029988424BD8A8B2C01801998968C988D2
:10584000884244D81C4608AD05921046294601F00E
:10585000E9FD2E7C0398000606D00098864239D1D7
:10586000C0080490069D16E0B98905223846FCF769
:10587000A3FB102E01D0022200E00122069DB88970
:10588000401C81B238460392FCF796FBAD1CF00831
:105890000490841C0096B889401981B23846079A52
:1058A000FCF781FBB8892818861C08A808F0D6FCEC
:1058B0000346B1B20498C2B23846FCF76BFBE0B2C3
:1058C0002D180598FFF786FD02462346ABE703989F
:1058D000000603D006987880002007E0079881B280
:1058E00004200A223B4600F026FE86200FB0F0BDC1
:1058F000F8B50D46064600921468002C11D02746D4
:10590000E4693888B042F8D1384604F020F9A8425A
:10591000F3D100983946FCF72FFA3846FCF727FBFD
:10592000EBE7F8BD70B5E14D2868846B002C0AD018
:10593000E669286838302146FCF71EFA2046FCF755
:1059400016FB3446F2E770BD9C060020811E1E291E
:1059500016D800207944097949008F4418170F1789
:1059600019171B171D171F1721172317251717178F
:1059700027172917171717172B172D000120704706
:1059800052281BD0D22801D10A2070470F2070471F
:10599000022070470320704704207047052070479D
:1059A0000620704707207047082070470B2070477B
:1059B0000C2070470D2070470E207047092070475B
:1059C00070B514460D4606468089401C81B23046AB
:1059D000FCF78DFA2880B089C01C81B23046FCF7F4
:1059E00086FA208070BD0000F0B58BB00A93144693
:1059F0000D460746FFF75EFA002811D006460497C9
:105A000080880C2741077DD4022C01D1800779D4EE
:105A100002950394109C0A9B012B03D8032503E0F5
:105A200012276FE09800451CA01C1946002904D0DD
:105A3000028855190830491EF8E7F088022B02D376
:105A4000A9B281425ED8A9B2814200D30546A9B26B
:105A500030460691FFF75DFA00280ED007460398FE
:105A60000228079701960DD1B9891D223846FCF707
:105A7000A3FA0A9801280DD04CE0082010F032FF5C
:105A800088273FE0B9890A9801283ED11B22384671
:105A9000FCF792FA2288B889401C81B23846FCF79C
:105AA00082FA6368B889E91E8AB2C01C81B238469E
:105AB000FCF770FA07984580039D022D0CD1012058
:105AC0000499029AFFF72CFB0028019C0CD0074692
:105AD0000798FCF74CFA15E0E807019C04D0079AF8
